0029029070999991901012620004+64333+023450FM-12+000599999V0202301N020119999999N0000001N9-00221+99999098001ADDGF100991999999999999999999
0029029070999991901012706004+64333+023450FM-12+000599999V0201601N004119999999N0000001N9-00561+99999098121ADDGF104991999999999999999999
0029029070999991901012713004+64333+023450FM-12+000599999V0201101N006219999999N0000001N9-00281+99999098071ADDGF104991999999999999999999
0029029070999991901012720004+64333+023450FM-12+000599999V0200701N006219999999N0000001N9-00281+99999097881ADDGF104991999999999999999999
0029029070999991901012806004+64333+023450FM-12+000599999V0200701N011819999999N0000001N9-00281+99999098001ADDGF108991999999999999999999
0029029070999991901012813004+64333+023450FM-12+000599999V0200701N011819999999N0000001N9-00281+99999097991ADDGF108991999999999999999999
0029029070999991901012820004+64333+023450FM-12+000599999V0200501N015919999999N0000001N9-00391+99999097761ADDGF108991999999999999999999
0035029070999991901012906004+64333+023450FM-12+000599999V0200501N009819999999N0000001N9-00281+99999097351ADDGF108991999999999999999999MW1721
0029029070999991901012913004+64333+023450FM-12+000599999V0200501N008219999999N0000001N9-00171+99999097341ADDGF108991999999999999999999
0029029070999991901012920004+64333+023450FM-12+000599999V0200501N009819999999N0000001N9-00111+99999097741ADDGF108991999999999999999999
0029029070999991901013006004+64333+023450FM-12+000599999V0200901N009819999999N0000001N9-00331+99999098231ADDGF108991999999999999999999
0029029070999991901013013004+64333+023450FM-12+000599999V0201401N006219999999N0000001N9-00331+99999098671ADDGF104991999999999999999999
0029029070999991901013020004+64333+023450FM-12+000599999V0200901N008219999999N0000001N9-00441+99999098951ADDGF105991999999999999999999
0029029070999991901013106004+64333+023450FM-12+000599999V0209991C000019999999N0000001N9-00781+99999099271ADDGF104991999999999999999999
0029029070999991901013113004+64333+023450FM-12+000599999V0209991C000019999999N0000001N9-00611+99999099281ADDGF108991999999999999999999
0029029070999991901013120004+64333+023450FM-12+000599999V0203601N004119999999N0000001N9-00671+99999099281ADDGF104991999999999999999999
0029029070999991901020106004+64333+023450FM-12+000599999V0202301N011819999999N0000001N9-00781+99999099671ADDGF103991999999999999999999
0029029070999991901020113004+64333+023450FM-12+000599999V0202301N013919999999N0000001N9-00671+99999099721ADDGF102991999999999999999999
0029029070999991901020120004+64333+023450FM-12+000599999V0202301N009819999999N0000001N9-00831+99999100021ADDGF100991999999999999999999
0029029070999991901020206004+64333+023450FM-12+000599999V0209991C000019999999N0000001N9-00561+99999099791ADDGF108991999999999999999999
0029029070999991901020213004+64333+023450FM-12+000599999V0202301N006219999999N0000001N9-00221+99999099721ADDGF108991999999999999999999
0029029070999991901020220004+64333+023450FM-12+000599999V0202301N020119999999N0000001N9-00331+99999099641ADDGF104991999999999999999999
0029029070999991901020306004+64333+023450FM-12+000599999V0202301N004119999999N0000001N9-00441+99999099661ADDGF104991999999999999999999
